{
  "contractName": "DigitalSignature",
  "abi": [
    {
      "constant": true,
      "inputs": [
        {
          "internalType": "bytes32",
          "name": "",
          "type": "bytes32"
        }
      ],
      "name": "documents",
      "outputs": [
        {
          "internalType": "address",
          "name": "document_owner",
          "type": "address"
        }
      ],
      "payable": false,
      "stateMutability": "view",
      "type": "function"
    },
    {
      "constant": false,
      "inputs": [
        {
          "internalType": "bytes32",
          "name": "hash",
          "type": "bytes32"
        },
        {
          "internalType": "bytes",
          "name": "signature",
          "type": "bytes"
        }
      ],
      "name": "addDocument",
      "outputs": [],
      "payable": false,
      "stateMutability": "nonpayable",
      "type": "function"
    },
    {
      "constant": false,
      "inputs": [
        {
          "internalType": "bytes32",
          "name": "hash",
          "type": "bytes32"
        },
        {
          "internalType": "bytes",
          "name": "signature",
          "type": "bytes"
        }
      ],
      "name": "addSignature",
      "outputs": [],
      "payable": false,
      "stateMutability": "nonpayable",
      "type": "function"
    }
  ],
  "bytecode": "0x608060405234801561001057600080fd5b506105b6806100206000396000f3fe608060405234801561001057600080fd5b50600436106100415760003560e01c80632b2805db1461004657806373020c11146100b4578063a3b563b014610179575b600080fd5b6100726004803603602081101561005c57600080fd5b810190808035906020019092919050505061023e565b604051808273ffffffffffffffffffffffffffffffffffffffff1673ffffffffffffffffffffffffffffffffffffffff16815260200191505060405180910390f35b610177600480360360408110156100ca57600080fd5b8101908080359060200190929190803590602001906401000000008111156100f157600080fd5b82018360208201111561010357600080fd5b8035906020019184600183028401116401000000008311171561012557600080fd5b91908080601f016020809104026020016040519081016040528093929190818152602001838380828437600081840152601f19601f82011690508083019250505050505050919291929050505061027c565b005b61023c6004803603604081101561018f57600080fd5b8101908080359060200190929190803590602001906401000000008111156101b657600080fd5b8201836020820111156101c857600080fd5b803590602001918460018302840111640100000000831117156101ea57600080fd5b91908080601f016020809104026020016040519081016040528093929190818152602001838380828437600081840152601f19601f8201169050808301925050505050505091929192905050506102fa565b005b60006020528060005260406000206000915090508060000160009054906101000a900473ffffffffffffffffffffffffffffffffffffffff16905081565b61028682826103cc565b61028f57600080fd5b8060008084815260200190815260200160002060010160003373ffffffffffffffffffffffffffffffffffffffff1673ffffffffffffffffffffffffffffffffffffffff16815260200190815260200160002090805190602001906102f59291906104dc565b505050565b61030482826103cc565b61030d57600080fd5b3360008084815260200190815260200160002060000160006101000a81548173ffffffffffffffffffffffffffffffffffffffff021916908373ffffffffffffffffffffffffffffffffffffffff1602179055508060008084815260200190815260200160002060010160003373ffffffffffffffffffffffffffffffffffffffff1673ffffffffffffffffffffffffffffffffffffffff16815260200190815260200160002090805190602001906103c79291906104dc565b505050565b60008060008060418551146103e757600093505050506104d6565b6020850151925060408501519150606085015160001a9050601b8160ff16101561041257601b810190505b601b8160ff161415801561042a5750601c8160ff1614155b1561043b57600093505050506104d6565b3373ffffffffffffffffffffffffffffffffffffffff1660018783868660405160008152602001604052604051808581526020018460ff1660ff1681526020018381526020018281526020019450505050506020604051602081039080840390855afa1580156104af573d6000803e3d6000fd5b5050506020604051035173ffffffffffffffffffffffffffffffffffffffff161493505050505b92915050565b828054600181600116156101000203166002900490600052602060002090601f016020900481019282601f1061051d57805160ff191683800117855561054b565b8280016001018555821561054b579182015b8281111561054a57825182559160200191906001019061052f565b5b509050610558919061055c565b5090565b61057e91905b8082111561057a576000816000905550600101610562565b5090565b9056fea265627a7a72315820499372588a6e1ac69cfa29e2ceb0f8d0ed97b212bab5f5e3c14a7a987173b64164736f6c634300050c0032",
  "source": "pragma solidity >=0.5.12 <0.6.0;\n\ncontract DigitalSignature {\n\n    struct Document {\n        address document_owner;\n        mapping (address => bytes) signatures;\n    }\n\n    mapping (bytes32 => Document) public documents;\n\n    function addDocument(bytes32 hash, bytes memory signature) public {\n        require (verify(hash, signature));\n        documents[hash].document_owner = msg.sender;\n        documents[hash].signatures[msg.sender] = signature;\n    }\n\n    function addSignature(bytes32 hash, bytes memory signature) public {\n        require (verify(hash, signature));\n        documents[hash].signatures[msg.sender] = signature;\n    }\n\n    function verify(bytes32 hash, bytes memory signature) internal view returns (bool) {\n      bytes32 r;\n      bytes32 s;\n      uint8 v;\n\n    // Check the signature length\n      if (signature.length != 65) {\n        return false;\n      }\n\n      // Divide the signature in r, s and v variables with inline assembly.\n      assembly {\n        r := mload(add(signature, 0x20))\n        s := mload(add(signature, 0x40))\n        v := byte(0, mload(add(signature, 0x60)))\n      }\n\n      // Version of signature should be 27 or 28, but 0 and 1 are also possible versions\n      if (v < 27) {\n        v += 27;\n      }\n\n      // If the version is correct return the signer address\n      if (v != 27 && v != 28) {\n        return false;\n      }\n\n      return ecrecover(hash, v, r, s) == msg.sender;\n    }\n\n}\n",
  "sourcePath": "/home/aananth/Desktop/PragyanHackathon/Truffle/contracts/DigitalSignature.sol",
  "compiler": {
    "name": "solc",
    "version": "0.5.12+commit.7709ece9.Emscripten.clang"
  },
  "schemaVersion": "3.0.19",
  "updatedAt": "2019-12-21T19:31:00.134Z",
  "networkType": "ethereum",
  "devdoc": {
    "methods": {}
  },
  "userdoc": {
    "methods": {}
  }
}