{
  "contractName": "DigitalSignature",
  "abi": [
    {
      "constant": false,
      "inputs": [
        {
          "internalType": "bytes32",
          "name": "hash",
          "type": "bytes32"
        },
        {
          "internalType": "bytes",
          "name": "signature",
          "type": "bytes"
        }
      ],
      "name": "addDocument",
      "outputs": [],
      "payable": false,
      "stateMutability": "nonpayable",
      "type": "function"
    },
    {
      "constant": false,
      "inputs": [
        {
          "internalType": "bytes32",
          "name": "hash",
          "type": "bytes32"
        },
        {
          "internalType": "bytes",
          "name": "signature",
          "type": "bytes"
        }
      ],
      "name": "addSignature",
      "outputs": [],
      "payable": false,
      "stateMutability": "nonpayable",
      "type": "function"
    }
  ],
  "bytecode": "0x608060405234801561001057600080fd5b506104ff806100206000396000f3fe608060405234801561001057600080fd5b50600436106100365760003560e01c806373020c111461003b578063a3b563b014610100575b600080fd5b6100fe6004803603604081101561005157600080fd5b81019080803590602001909291908035906020019064010000000081111561007857600080fd5b82018360208201111561008a57600080fd5b803590602001918460018302840111640100000000831117156100ac57600080fd5b91908080601f016020809104026020016040519081016040528093929190818152602001838380828437600081840152601f19601f8201169050808301925050505050505091929192905050506101c5565b005b6101c36004803603604081101561011657600080fd5b81019080803590602001909291908035906020019064010000000081111561013d57600080fd5b82018360208201111561014f57600080fd5b8035906020019184600183028401116401000000008311171561017157600080fd5b91908080601f016020809104026020016040519081016040528093929190818152602001838380828437600081840152601f19601f820116905080830192505050505050509192919290505050610243565b005b6101cf8282610315565b6101d857600080fd5b8060008084815260200190815260200160002060010160003373ffffffffffffffffffffffffffffffffffffffff1673ffffffffffffffffffffffffffffffffffffffff168152602001908152602001600020908051906020019061023e929190610425565b505050565b61024d8282610315565b61025657600080fd5b3360008084815260200190815260200160002060000160006101000a81548173ffffffffffffffffffffffffffffffffffffffff021916908373ffffffffffffffffffffffffffffffffffffffff1602179055508060008084815260200190815260200160002060010160003373ffffffffffffffffffffffffffffffffffffffff1673ffffffffffffffffffffffffffffffffffffffff1681526020019081526020016000209080519060200190610310929190610425565b505050565b6000806000806041855114610330576000935050505061041f565b6020850151925060408501519150606085015160001a9050601b8160ff16101561035b57601b810190505b601b8160ff16141580156103735750601c8160ff1614155b15610384576000935050505061041f565b3373ffffffffffffffffffffffffffffffffffffffff1660018783868660405160008152602001604052604051808581526020018460ff1660ff1681526020018381526020018281526020019450505050506020604051602081039080840390855afa1580156103f8573d6000803e3d6000fd5b5050506020604051035173ffffffffffffffffffffffffffffffffffffffff161493505050505b92915050565b828054600181600116156101000203166002900490600052602060002090601f016020900481019282601f1061046657805160ff1916838001178555610494565b82800160010185558215610494579182015b82811115610493578251825591602001919060010190610478565b5b5090506104a191906104a5565b5090565b6104c791905b808211156104c35760008160009055506001016104ab565b5090565b9056fea265627a7a72315820709b22eee1ed5aa165c4520a97207f2983366fc19cb3af7efa615eaa11b5516f64736f6c634300050c0032",
  "source": "pragma solidity >=0.5.12 <0.6.0;\n\ncontract DigitalSignature {\n    \n    struct Document {\n        address document_owner;\n        mapping (address => bytes) signatures;\n    }\n    \n    mapping (bytes32 => Document) documents;\n    \n    function addDocument(bytes32 hash, bytes memory signature) public {\n        require (verify(hash, signature));\n        documents[hash].document_owner = msg.sender;\n        documents[hash].signatures[msg.sender] = signature;\n    }\n\n    function addSignature(bytes32 hash, bytes memory signature) public {\n        require (verify(hash, signature));\n        documents[hash].signatures[msg.sender] = signature;\n    }\n\n    function verify(bytes32 hash, bytes memory signature) internal view returns (bool) {\n      bytes32 r;\n      bytes32 s;\n      uint8 v;\n\n    // Check the signature length\n      if (signature.length != 65) {\n        return false;\n      }\n\n      // Divide the signature in r, s and v variables with inline assembly.\n      assembly {\n        r := mload(add(signature, 0x20))\n        s := mload(add(signature, 0x40))\n        v := byte(0, mload(add(signature, 0x60)))\n      }\n\n      // Version of signature should be 27 or 28, but 0 and 1 are also possible versions\n      if (v < 27) {\n        v += 27;\n      }\n\n      // If the version is correct return the signer address\n      if (v != 27 && v != 28) {\n        return false;\n      } \n\n      return ecrecover(hash, v, r, s) == msg.sender; \n    }\n\n}",
  "sourcePath": "/home/aananth/Desktop/PragyanHackathon/Truffle/contracts/Document.sol",
  "compiler": {
    "name": "solc",
    "version": "0.5.12+commit.7709ece9.Emscripten.clang"
  },
  "schemaVersion": "3.0.19",
  "updatedAt": "2019-12-21T09:53:37.557Z",
  "networkType": "ethereum",
  "devdoc": {
    "methods": {}
  },
  "userdoc": {
    "methods": {}
  }
}