{
  "contractName": "User",
  "abi": [
    {
      "constant": true,
      "inputs": [
        {
          "internalType": "address",
          "name": "",
          "type": "address"
        }
      ],
      "name": "users",
      "outputs": [
        {
          "internalType": "bytes12",
          "name": "user_id",
          "type": "bytes12"
        },
        {
          "internalType": "bytes32",
          "name": "name",
          "type": "bytes32"
        }
      ],
      "payable": false,
      "stateMutability": "view",
      "type": "function"
    },
    {
      "constant": false,
      "inputs": [
        {
          "internalType": "bytes12",
          "name": "user_id",
          "type": "bytes12"
        },
        {
          "internalType": "bytes32",
          "name": "name",
          "type": "bytes32"
        }
      ],
      "name": "setUser",
      "outputs": [],
      "payable": false,
      "stateMutability": "nonpayable",
      "type": "function"
    }
  ],
  "bytecode": "0x608060405234801561001057600080fd5b5061022c806100206000396000f3fe608060405234801561001057600080fd5b50600436106100365760003560e01c80635024774c1461003b578063a87430ba1461008a575b600080fd5b6100886004803603604081101561005157600080fd5b81019080803573ffffffffffffffffffffffffffffffffffffffff1916906020019092919080359060200190929190505050610117565b005b6100cc600480360360208110156100a057600080fd5b81019080803573ffffffffffffffffffffffffffffffffffffffff1690602001909291905050506101c6565b604051808373ffffffffffffffffffffffffffffffffffffffff191673ffffffffffffffffffffffffffffffffffffffff191681526020018281526020019250505060405180910390f35b816000803373ffffffffffffffffffffffffffffffffffffffff1673ffffffffffffffffffffffffffffffffffffffff16815260200190815260200160002060000160006101000a8154816bffffffffffffffffffffffff021916908360a01c0217905550806000803373ffffffffffffffffffffffffffffffffffffffff1673ffffffffffffffffffffffffffffffffffffffff168152602001908152602001600020600101819055505050565b60006020528060005260406000206000915090508060000160009054906101000a900460a01b90806001015490508256fea265627a7a7231582011943963d77a4642d48692027ca9deef988269e42dae470fe388d68126186aa164736f6c634300050c0032",
  "source": "pragma solidity >=0.5.12 <0.6.0;\n\ncontract User {\n\n    struct user {\n        bytes12 user_id;\n        bytes32 name;\n    }\n\n    mapping (address => user) public users;\n\n    function setUser(bytes12 user_id, bytes32 name) public {\n        users[msg.sender].user_id = user_id;\n        users[msg.sender].name = name;\n    }\n\n}\n",
  "sourcePath": "/home/aananth/Desktop/PragyanHackathon/Truffle/contracts/User.sol",
  "compiler": {
    "name": "solc",
    "version": "0.5.12+commit.7709ece9.Emscripten.clang"
  },
  "schemaVersion": "3.0.19",
  "updatedAt": "2019-12-21T19:30:59.874Z",
  "networkType": "ethereum",
  "devdoc": {
    "methods": {}
  },
  "userdoc": {
    "methods": {}
  }
}