{
  "contractName": "User",
  "abi": [
    {
      "constant": true,
      "inputs": [
        {
          "internalType": "address",
          "name": "",
          "type": "address"
        }
      ],
      "name": "users",
      "outputs": [
        {
          "internalType": "uint256",
          "name": "user_id",
          "type": "uint256"
        },
        {
          "internalType": "bytes32",
          "name": "name",
          "type": "bytes32"
        }
      ],
      "payable": false,
      "stateMutability": "view",
      "type": "function"
    },
    {
      "constant": false,
      "inputs": [
        {
          "internalType": "uint256",
          "name": "user_id",
          "type": "uint256"
        },
        {
          "internalType": "bytes32",
          "name": "name",
          "type": "bytes32"
        }
      ],
      "name": "setUser",
      "outputs": [],
      "payable": false,
      "stateMutability": "nonpayable",
      "type": "function"
    }
  ],
  "bytecode": "0x608060405234801561001057600080fd5b506101bb806100206000396000f3fe608060405234801561001057600080fd5b50600436106100365760003560e01c8063a87430ba1461003b578063b0c529951461009a575b600080fd5b61007d6004803603602081101561005157600080fd5b81019080803573ffffffffffffffffffffffffffffffffffffffff1690602001909291905050506100d2565b604051808381526020018281526020019250505060405180910390f35b6100d0600480360360408110156100b057600080fd5b8101908080359060200190929190803590602001909291905050506100f6565b005b60006020528060005260406000206000915090508060000154908060010154905082565b816000803373ffffffffffffffffffffffffffffffffffffffff1673ffffffffffffffffffffffffffffffffffffffff16815260200190815260200160002060000181905550806000803373ffffffffffffffffffffffffffffffffffffffff1673ffffffffffffffffffffffffffffffffffffffff16815260200190815260200160002060010181905550505056fea265627a7a7231582039143cce2d17e3f9693805aaf7c3f548536fea3064045f391a604e39cc44dc0b64736f6c634300050c0032",
  "source": "pragma solidity >=0.5.12 <0.6.0;\n\ncontract User {\n\n    struct user {\n        uint user_id;\n        bytes32 name;\n    }\n\n    mapping (address => user) public users;\n\n    function setUser(uint user_id, bytes32 name) public {\n        users[msg.sender].user_id = user_id;\n        users[msg.sender].name = name;\n    }\n\n}\n",
  "sourcePath": "/home/pavi/Desktop/PragyanHackathon/Truffle/contracts/User.sol",
  "compiler": {
    "name": "solc",
    "version": "0.5.12+commit.7709ece9.Emscripten.clang"
  },
  "schemaVersion": "3.0.20",
  "updatedAt": "2019-12-21T18:33:19.728Z",
  "networkType": "ethereum",
  "devdoc": {
    "methods": {}
  },
  "userdoc": {
    "methods": {}
  }
}